:02000000FA29DB
:1000300064008001840A04060319003404061928A8
:100040008130C0004008D600D701D8015530C0002B
:100050004008D900080087102630C000C00B2E28A9
:10006000000087140730C000C00B342800000800CF
:10007000C20105304202031808004208C0004007D0
:100080004E3E840080010430C0004008C1000830AA
:100090004102031878284208C00040074E3E840001
:1000A0000310800D0310800D4208563E84000008A6
:1000B000C000410A5D280310C00CFF3E031D5B28F1
:1000C000401869284208C00040074E3E8400801452
:1000D0006F284208C00040074E3E840000140130E3
:1000E000C0004008C10708304102031C4B2803141C
:1000F000420D4E3E84008001C101043041020318CC
:10010000AA280314420D4E3E84000310800D0310F4
:10011000800D4208563E84000008C000410A922823
:100120000310C00CFF3E031D902840189D280314A7
:10013000420D4E3E84008014A2280314420D4E3E10
:10014000840000140130C0004008C107043041029F
:10015000031C81280130C0004008C20739288B13D6
:100160009001880189019D019F01202006108610C1
:10017000061107108710071138201B30B00080309F
:10018000C300C30BC128C428640087109A30C30081
:10019000C928C30BC828CC28CD2864009A30C300D6
:1001A000D128C30BD028D428D528CC0108304C0244
:1001B0000318EC284C084E3E84000008C3004C088D
:1001C000443E8400430880000130C3004308CC074C
:1001D00008304C02031CDA2887144D30C300C30BCF
:1001E000EF2887100730C300C30BF4280000CD01AF
:1001F00004304D0203180F2987141130C300C30BBC
:10020000FF28022987100A30C300C30B05290130DB
:10021000C3004308CD0704304D02031CFC282B20EB
:10022000CD0108304D0203182C2944080139C300C0
:10023000C30D07084306FD39430687000310C40CAD
:1002400021292229232924290130C3004308CD076D
:1002500008304D02031C1529CD0108304D0203184A
:10026000482945080139C300C30D07084306FD3975
:10027000430687000310C50C3D293E293F2940292C
:100280000130C3004308CD0708304D02031C31295B
:100290002B20CD0108304D0203186529460801398D
:1002A000C300C30D07084306FD394306870003104A
:1002B000C60C5A295B295C295D290130C30043081B
:1002C000CD0708304D02031C4E29CD0108304D02E8
:1002D0000318812947080139C300C30D07084306E5
:1002E000FD39430687000310C70C76297729782942
:1002F00079290130C3004308CD0708304D02031CA3
:100300006A292B20CD0108304D0203189E29480888
:100310000139C300C30D07084306FD3943068700B2
:100320000310C80C93299429952996290130C300FC
:100330004308CD0708304D02031C8729CD01083042
:100340004D020318BA2949080139C300C30D070833
:100350004306FD39430687000310C90CAF29B029B5
:10036000B129B2290130C3004308CD0708304D023E
:10037000031CA3292B20CD0108304D020318D729D7
:100380004A080139C300C30D07084306FD39430677
:1003900087000310CA0CCC29CD29CE29CF290130E2
:1003A000C3004308CD0708304D02031CC029CD010E
:1003B00008304D020318F3294B080139C300C30D5F
:1003C00007084306FD39430687000310CB0CE829D4
:1003D000E929EA29EB290130C3004308CD07083099
:1003E0004D02031CDC2987102630C300C30BF629FD
:1003F0000000CD284E3084005A3018208301AF28E9
:02400E00E83D8B
:00000001FF
